{
  "contractName": "Dontbuy",
  "abi": [
    {
      "inputs": [],
      "stateMutability": "nonpayable",
      "type": "constructor"
    },
    {
      "inputs": [],
      "name": "buydate",
      "outputs": [
        {
          "internalType": "uint256",
          "name": "",
          "type": "uint256"
        }
      ],
      "stateMutability": "view",
      "type": "function",
      "constant": true
    },
    {
      "inputs": [],
      "name": "name",
      "outputs": [
        {
          "internalType": "string",
          "name": "",
          "type": "string"
        }
      ],
      "stateMutability": "view",
      "type": "function",
      "constant": true
    },
    {
      "inputs": [],
      "name": "owner",
      "outputs": [
        {
          "internalType": "address",
          "name": "",
          "type": "address"
        }
      ],
      "stateMutability": "view",
      "type": "function",
      "constant": true
    },
    {
      "inputs": [],
      "name": "title",
      "outputs": [
        {
          "internalType": "string",
          "name": "",
          "type": "string"
        }
      ],
      "stateMutability": "view",
      "type": "function",
      "constant": true
    },
    {
      "inputs": [
        {
          "internalType": "address",
          "name": "publickey",
          "type": "address"
        },
        {
          "internalType": "string",
          "name": "newname",
          "type": "string"
        }
      ],
      "name": "modifyToken",
      "outputs": [],
      "stateMutability": "nonpayable",
      "type": "function"
    }
  ],
  "bytecode": "0x608060405234801561001057600080fd5b5060008060006101000a81548173ffffffffffffffffffffffffffffffffffffffff021916908373ffffffffffffffffffffffffffffffffffffffff16021790555060405180602001604052806000815250600190805190602001906100779291906100d0565b506040518060400160405280601081526020017f42616d626f6f7a6c652056696374696d00000000000000000000000000000000815250600290805190602001906100c39291906100d0565b50426003819055506101d3565b8280546100dc906101a2565b90600052602060002090601f0160209004810192826100fe5760008555610145565b82601f1061011757805160ff1916838001178555610145565b82800160010185558215610145579182015b82811115610144578251825591602001919060010190610129565b5b5090506101529190610156565b5090565b5b8082111561016f576000816000905550600101610157565b5090565b7f4e487b7100000000000000000000000000000000000000000000000000000000600052602260045260246000fd5b600060028204905060018216806101ba57607f821691505b6020821081036101cd576101cc610173565b5b50919050565b6106ed806101e26000396000f3fe608060405234801561001057600080fd5b50600436106100575760003560e01c806306fdde031461005c5780633383c41c1461007a5780634a79d50c146100985780638da5cb5b146100b6578063b4741a52146100d4575b600080fd5b6100646100f0565b60405161007191906103d4565b60405180910390f35b61008261017e565b60405161008f919061040f565b60405180910390f35b6100a0610184565b6040516100ad91906103d4565b60405180910390f35b6100be610212565b6040516100cb919061046b565b60405180910390f35b6100ee60048036038101906100e991906105fb565b610236565b005b600180546100fd90610686565b80601f016020809104026020016040519081016040528092919081815260200182805461012990610686565b80156101765780601f1061014b57610100808354040283529160200191610176565b820191906000526020600020905b81548152906001019060200180831161015957829003601f168201915b505050505081565b60035481565b6002805461019190610686565b80601f01602080910402602001604051908101604052809291908181526020018280546101bd90610686565b801561020a5780601f106101df5761010080835404028352916020019161020a565b820191906000526020600020905b8154815290600101906020018083116101ed57829003601f168201915b505050505081565b60008054906101000a900473ffffffffffffffffffffffffffffffffffffffff1681565b816000806101000a81548173ffffffffffffffffffffffffffffffffffffffff021916908373ffffffffffffffffffffffffffffffffffffffff160217905550806001908051906020019061028c929190610298565b50426003819055505050565b8280546102a490610686565b90600052602060002090601f0160209004810192826102c6576000855561030d565b82601f106102df57805160ff191683800117855561030d565b8280016001018555821561030d579182015b8281111561030c5782518255916020019190600101906102f1565b5b50905061031a919061031e565b5090565b5b8082111561033757600081600090555060010161031f565b5090565b600081519050919050565b600082825260208201905092915050565b60005b8381101561037557808201518184015260208101905061035a565b83811115610384576000848401525b50505050565b6000601f19601f8301169050919050565b60006103a68261033b565b6103b08185610346565b93506103c0818560208601610357565b6103c98161038a565b840191505092915050565b600060208201905081810360008301526103ee818461039b565b905092915050565b6000819050919050565b610409816103f6565b82525050565b60006020820190506104246000830184610400565b92915050565b600073ffffffffffffffffffffffffffffffffffffffff82169050919050565b60006104558261042a565b9050919050565b6104658161044a565b82525050565b6000602082019050610480600083018461045c565b92915050565b6000604051905090565b600080fd5b600080fd5b6104a38161044a565b81146104ae57600080fd5b50565b6000813590506104c08161049a565b92915050565b600080fd5b600080fd5b7f4e487b7100000000000000000000000000000000000000000000000000000000600052604160045260246000fd5b6105088261038a565b810181811067ffffffffffffffff82111715610527576105266104d0565b5b80604052505050565b600061053a610486565b905061054682826104ff565b919050565b600067ffffffffffffffff821115610566576105656104d0565b5b61056f8261038a565b9050602081019050919050565b82818337600083830152505050565b600061059e6105998461054b565b610530565b9050828152602081018484840111156105ba576105b96104cb565b5b6105c584828561057c565b509392505050565b600082601f8301126105e2576105e16104c6565b5b81356105f284826020860161058b565b91505092915050565b6000806040838503121561061257610611610490565b5b6000610620858286016104b1565b925050602083013567ffffffffffffffff81111561064157610640610495565b5b61064d858286016105cd565b9150509250929050565b7f4e487b7100000000000000000000000000000000000000000000000000000000600052602260045260246000fd5b6000600282049050600182168061069e57607f821691505b6020821081036106b1576106b0610657565b5b5091905056fea264697066735822122068ebc3a86b318dd9eeb55ebacd97ec1bd8713e5652761d1065221830cfa9013d64736f6c634300080d0033",
  "immutableReferences": {},
  "source": "// SPDX-License-Identifier: MIT\npragma solidity >=0.4.22 <0.9.0;\n\ncontract Dontbuy {\n  address public owner;\n  string public name;\n  string public title;\n  uint256 public buydate;\n\n  constructor() public {\n    owner = address(0x0);\n    name = \"\";\n    title = \"Bamboozle Victim\";\n    buydate = block.timestamp;\n  }\n  \n    function modifyToken(address publickey, string memory newname) public {\n        owner = publickey;\n        name = newname;\n        buydate = block.timestamp;\n    }\n}\n",
  "sourcePath": "D:\\HSLU\\STUEMTEC\\DoNotBuyThisNFT\\contracts\\Dontbuy.sol",
  "compiler": {
    "name": "solc",
    "version": "0.8.13+commit.abaa5c0e.Emscripten.clang"
  },
  "schemaVersion": "3.4.6",
  "updatedAt": "2022-04-08T06:20:10.033Z",
  "networkType": "ethereum",
  "devdoc": {
    "kind": "dev",
    "methods": {},
    "version": 1
  },
  "userdoc": {
    "kind": "user",
    "methods": {},
    "version": 1
  }
}