{
  "contractName": "Dontbuy",
  "abi": [
    {
      "inputs": [],
      "name": "buydate",
      "outputs": [
        {
          "internalType": "uint256",
          "name": "",
          "type": "uint256"
        }
      ],
      "stateMutability": "view",
      "type": "function",
      "constant": true
    },
    {
      "inputs": [],
      "name": "name",
      "outputs": [
        {
          "internalType": "string",
          "name": "",
          "type": "string"
        }
      ],
      "stateMutability": "view",
      "type": "function",
      "constant": true
    },
    {
      "inputs": [],
      "name": "owner",
      "outputs": [
        {
          "internalType": "address",
          "name": "",
          "type": "address"
        }
      ],
      "stateMutability": "view",
      "type": "function",
      "constant": true
    },
    {
      "inputs": [],
      "name": "title",
      "outputs": [
        {
          "internalType": "string",
          "name": "",
          "type": "string"
        }
      ],
      "stateMutability": "view",
      "type": "function",
      "constant": true
    },
    {
      "inputs": [
        {
          "internalType": "address",
          "name": "publickey",
          "type": "address"
        },
        {
          "internalType": "string",
          "name": "newname",
          "type": "string"
        }
      ],
      "name": "mint",
      "outputs": [],
      "stateMutability": "nonpayable",
      "type": "function"
    }
  ],
  "bytecode": "0x608060405234801561001057600080fd5b50610739806100206000396000f3fe608060405234801561001057600080fd5b50600436106100575760003560e01c806306fdde031461005c5780633383c41c1461007a5780634a79d50c146100985780638da5cb5b146100b6578063d0def521146100d4575b600080fd5b6100646100f0565b6040516100719190610420565b60405180910390f35b61008261017e565b60405161008f919061045b565b60405180910390f35b6100a0610184565b6040516100ad9190610420565b60405180910390f35b6100be610212565b6040516100cb91906104b7565b60405180910390f35b6100ee60048036038101906100e99190610647565b610236565b005b600180546100fd906106d2565b80601f0160208091040260200160405190810160405280929190818152602001828054610129906106d2565b80156101765780601f1061014b57610100808354040283529160200191610176565b820191906000526020600020905b81548152906001019060200180831161015957829003601f168201915b505050505081565b60035481565b60028054610191906106d2565b80601f01602080910402602001604051908101604052809291908181526020018280546101bd906106d2565b801561020a5780601f106101df5761010080835404028352916020019161020a565b820191906000526020600020905b8154815290600101906020018083116101ed57829003601f168201915b505050505081565b60008054906101000a900473ffffffffffffffffffffffffffffffffffffffff1681565b816000806101000a81548173ffffffffffffffffffffffffffffffffffffffff021916908373ffffffffffffffffffffffffffffffffffffffff160217905550806001908051906020019061028c9291906102e4565b506040518060400160405280600f81526020017f42616d6f6f7a6c652056696374696d0000000000000000000000000000000000815250600290805190602001906102d89291906102e4565b50426003819055505050565b8280546102f0906106d2565b90600052602060002090601f0160209004810192826103125760008555610359565b82601f1061032b57805160ff1916838001178555610359565b82800160010185558215610359579182015b8281111561035857825182559160200191906001019061033d565b5b509050610366919061036a565b5090565b5b8082111561038357600081600090555060010161036b565b5090565b600081519050919050565b600082825260208201905092915050565b60005b838110156103c15780820151818401526020810190506103a6565b838111156103d0576000848401525b50505050565b6000601f19601f8301169050919050565b60006103f282610387565b6103fc8185610392565b935061040c8185602086016103a3565b610415816103d6565b840191505092915050565b6000602082019050818103600083015261043a81846103e7565b905092915050565b6000819050919050565b61045581610442565b82525050565b6000602082019050610470600083018461044c565b92915050565b600073ffffffffffffffffffffffffffffffffffffffff82169050919050565b60006104a182610476565b9050919050565b6104b181610496565b82525050565b60006020820190506104cc60008301846104a8565b92915050565b6000604051905090565b600080fd5b600080fd5b6104ef81610496565b81146104fa57600080fd5b50565b60008135905061050c816104e6565b92915050565b600080fd5b600080fd5b7f4e487b7100000000000000000000000000000000000000000000000000000000600052604160045260246000fd5b610554826103d6565b810181811067ffffffffffffffff821117156105735761057261051c565b5b80604052505050565b60006105866104d2565b9050610592828261054b565b919050565b600067ffffffffffffffff8211156105b2576105b161051c565b5b6105bb826103d6565b9050602081019050919050565b82818337600083830152505050565b60006105ea6105e584610597565b61057c565b90508281526020810184848401111561060657610605610517565b5b6106118482856105c8565b509392505050565b600082601f83011261062e5761062d610512565b5b813561063e8482602086016105d7565b91505092915050565b6000806040838503121561065e5761065d6104dc565b5b600061066c858286016104fd565b925050602083013567ffffffffffffffff81111561068d5761068c6104e1565b5b61069985828601610619565b9150509250929050565b7f4e487b7100000000000000000000000000000000000000000000000000000000600052602260045260246000fd5b600060028204905060018216806106ea57607f821691505b6020821081036106fd576106fc6106a3565b5b5091905056fea26469706673582212205504f5b02fe9c27f6086203ec1c99774dc35bb78f3169580253ef585c02d263064736f6c634300080d0033",
  "immutableReferences": {},
  "source": "// SPDX-License-Identifier: MIT\npragma solidity >=0.4.22 <0.9.0;\n\ncontract Dontbuy {\n  address public owner;\n  string public name;\n  string public title;\n  uint256 public buydate;\n\n/*   constructor() public {\n    owner = address(0x0);\n    name = \"\";\n    title = \"Bamboozle Victim\";\n    buydate = block.timestamp;\n  } */\n\n/*   function createToken(string memory tokenURI) public returns (uint) {\n    _tokenIds.increment();\n    uint256 newItemId = _tokenIds.current();\n  } */\n  \n    function mint(address publickey, string memory newname) public {\n        owner = publickey;\n        name = newname;\n        title = \"Bamoozle Victim\";\n        buydate = block.timestamp;\n    }\n}\n",
  "sourcePath": "D:\\HSLU\\STUEMTEC\\DoNotBuyThisNFT\\contracts\\Dontbuy.sol",
  "compiler": {
    "name": "solc",
    "version": "0.8.13+commit.abaa5c0e.Emscripten.clang"
  },
  "schemaVersion": "3.4.6",
  "updatedAt": "2022-04-07T15:13:48.165Z",
  "networkType": "ethereum",
  "devdoc": {
    "kind": "dev",
    "methods": {},
    "version": 1
  },
  "userdoc": {
    "kind": "user",
    "methods": {},
    "version": 1
  }
}